:10000600900003743FF0900003E020B305541FF006
:1000160080034420F0900003E0209305542FF080E5
:10002600034410F0900003E020B7055437F0800336
:100036004408F0900003E020C005543BF0800344E0
:1000460004F0900003E020B605543DF0800344021E
:10005600F0900003E020B505543EF080034401F023
:10006600900004E0FF900003E06F609A7FFF1FEFAF
:10007600D3940150F9900003E0FF12031F90000390
:05008600E0A3F0808101
:09038100438F0112034D02000636
:1002D700EF64016004EFB4030343B204EF64026008
:0902E70004EFB4030343B3042245
:0B034D007F011202F01203DA02030825
:10031F00900005EFF07B017A0079057D01120363F0
:05032F007F7002039C39
:1002B400900019E0B440F97B017A00791A9000119A
:1002C4007401F07F611201567F7012039C90001A32
:0202D400E0FF49
:0102D6002205
:0300030002008B6D
:10008B00C0E0C0F0C083C082C0D075D000C000C03B
:0D009B0001C002C003C004C005C006C007BC
:1000A8001203CEEF547024F0601824F0600C24E0A2
:1000B80070189000197440F080159000197420F0A1
:0F00C800800D9000197410F080057F7012039C5A
:1000D700D007D006D005D004D003D002D001D0007D
:0B00E700D0D0D082D083D0F0D0E03227
:0703AC00AD077F25020233BB
:0603C8007F0512028B22EA
:08039C00AD077F271202332296
:0A03630090000AEDF07FA00201AC4B
:0603CE007F0712028B22E2
:0803A400EF2411FF12028B226D
:0703B300EF2431FF020233C9
:0A036D001203CEEF540EC313FF225B
:0601FB0090001412014DFA
:1002010012036D900018EFF01203A4900017EFF0A5
:1002110090001412012D900011EFF07F6112015630
:10022100900018E0FE900017E07C002400FFEC3EF7
:01023100FECE
:0102320022A9
:0703BA00E4FD7FE1020233C4
:0703C100E4FD7FE2020233BC
:0603D4007F1712028B22CC
:0B03580090001BE0B4010312037722A9
:05028B00900000EFF0FF
:10029000C2A1E4FF120393900000E0FF120358E4B0
:1002A000FF120358900001EFF07F011203939000BA
:0302B00001E0FF6B
:0102B3002228
:08023300900006EFF0A3EDF0CE
:10023B00E4FF120393900006E0FF120358900008AE
:10024B00EFF0900007E0FF1203587F011203939029
:04025B000008E0FFB8
:01025F00227C
:0901AC00900006EFF0A312014DD2
:1001B500E4FF120393900006E0FF12035890000B32
:1001C500EFF0E4A3F090000AE0FF90000CE0C39F7D
:1001D5005019900007E475F0011201361200F2FF84
:1001E50012035890000CE004F080DA7F01120393AB
:0501F50090000BE0FF8B
:0101FA0022E2
:0901560090000DEFF0A312014D21
:10015F00E4FF12039390000DE0FF1203589000127A
:10016F00EFF0E4A3F0900011E0FF900013E0C39FC5
:10017F005020E4FF12035890000E12012D9000132F
:10018F00E0F582758300EF12010B900013E004F08D
:0C019F0080D37F01120393900012E0FF58
:0101AB002231
:10030800900003740AF07B017A00790390000A7464
:0703180001F07F200201AC9F
:1002600090001C740BF07B017A00791C90000A74DA
:1002700001F07F201201AC90001C7401F0FB7A00A9
:0B028000791C90000AF07F310201ACF5
:0503DA00C2A2D2A22224
:09038A00D2AF43A801438801220F
:0A0377008FC5E5C430E7FBAFC522D7
:1002F00090001BEFF043C32053C3E343C31053C329
:080300007C43C30143C340220A
:09039300EF6003D2A122C2A122F5
:0D033400EF146006047005C2A222D2A222BE
:03000000020341B7
:0C034100787FE4F6D8FD75810702038187
:1000F200BB010689828A83E0225002E722BBFE020C
:09010200E32289828A83E493223E
:10010B00F8BB010DE58229F582E5833AF583E8F02A
:10011B00225006E92582C8F622BBFE05E92582C8D6
:02012B00F222BE
:09012D00E0FBA3E0FAA3E0F922D3
:10013600F8E0FBA3A3E0F925F0F0E5821582700252
:070146001583E0FA38F022F6
:09014D00EBF0A3EAF0A3E9F022B3
:00000001FF
