:10337100438F0112339253F1FC43F103D2B3023470
:0133810064E7
:03348C00022FA16B
:083419001234A21231AA80FB5B
:0634640012348C02341941
:0134A2002207
:1032450043D480EFC4131354034480FEEF54012587
:09325500E025E04EF5D47F0122D2
:10318900E4FFE5F860047E0180027E00EFC3940944
:10319900500CEE30E001220FEEC313FE80EE7F00EB
:0131A9002203
:1031EC0090031AE0FE8FC7EE600F121040F5CF1E51
:0E31FC00740129F9E43AFA80EE43CE10AF06D2
:01320A0022A1
:1032290090031FE0FE8FC7EE600FE5CF1210591E05
:0B323900740129F9E43AFA80EEAF06B8
:013244002267
:0D33A000E4F5C77D307F021232457F012227
:0734410075A42043A3022241
:0433D30041028A0029
:102FA100C20D43BC80122E3BE4900289F0D20790FF
:102FB1000290F090028CF0A3F0A3F0A3F0C206906F
:0E2FC100028BF090028704F0E4F523F5242241
:102E3B0012344153BCBF53BDFE43BC10E4FFFE0F25
:102E4B00BF00010EBE03F8BFE8F553BCEF43BE0154
:102E5B0043BE2043BE1043BE2043BE0843B140D205
:072E6B00AF1233A053BCEFCE
:012E7200223D
:1031AA0020071253A3FDD2AFD2B3438E01200710DA
:1031BA004387020022E4F5C7E5CE30E20312236E0C
:0131CA0022E2
:1022A000C20C75C705E5CF64556002D20CE5CF645A
:1022B000536002D20CE5CF64426002D20CE5CF64D9
:1022C000436002D20C900291E5CFF0A3E5CFF0A3DA
:1022D000E5CFF0A3E5CFF085CF1A85CF1985CF18CC
:1022E00085CF17E5CF6017D205300C28300905538C
:1022F000CEBF800353CEFDB20975C704806CC20502
:10230000300C1143CE2030090553CEBF800353CE8D
:10231000FDB20922900288E5CFF0200D0812349218
:10232000900288EFF0E5CFE4FF749A2FF582E43451
:1023300002F583E5CFF00FEFB410EE30090553CE70
:10234000BF800353CEFDB20930050375C7041228C0
:10235000B8E43364016016E4FFFEFDFCAB1AAA1971
:0D236000A918A817C3121234600343CE2041
:01236D00224D
:102A98008010E5CE30E520E4F5C7E5CE30E203123C
:102AA800236E75C70480EBE5CE30E510E4F5C7E585
:102AB800CE30E20312236E75C70580EB75C7047527
:102AC800CF5575CF5375CF4275CF53900291E0F52E
:102AD800CFA3E0F5CFA3E0F5CFA3E0F5CF851ACFDC
:102AE8008519CF8518CF8517CF900299E0F5CF4388
:0B2AF800CE10E5CE30E0FB53CEFE22F6
:10283400E490028CF0A3F0A3F0A3F090028AE06489
:1028440040706F7B017A0279AD9002B204F07F612F
:10285400122CD47F701234319002ADE0900286F0D5
:10286400FD20E50790028CE04401F0ED20E40790A0
:10287400028CE04402F0ED20E30890028D74FDF038
:102884008011ED20E20890028D7403F08005E4903D
:10289400028DF0ED20E10890028E7403F08011EDBA
:1028A40020E00890028E74FDF08005E490028EF022
:0328B400D322C369
:0128B70022FE
:03006B00021F2E43
:101F2E00C0E0C0F0C083C082C0D075D000C000C079
:0D1F3E0001C002C003C004C005C006C007FA
:101F4B00E5BD30E36D53BDF7900289E004F0E52465
:101F5B00B4010AE0B4400FB2B3E4F08009900289F7
:101F6B00E0B4FF02B2B39002D2E06046900287E089
:101F7B006027122834507B85C71F900287E4F075C9
:101F8B00C70190028CE0F5CFA3E0F5CFA3E0F5CF2E
:101F9B00A3E0F5CF43CE10801485C71F75C701E5AD
:101FAB00CE30E00953CEFE9002877401F0851FC737
:101FBB008040E5BD30E00853BDFE43BC40C207E5A1
:101FCB00BD30E51420070343A30253BCBF538EFE61
:101FDB0053BDFE53BDDFD207E5BD30E41553BDEF56
:101FEB001232D443BE0143BE2043BE08D207C20DFA
:021FFB00C2B36F
:101FFD00D007D006D005D004D003D002D001D00038
:0B200D00D0D0D082D083D0F0D0E032E1
:051559009002B9EFF063
:10155E00ED1212E916A80216CC03159A06169E0A6B
:10156E0016BE0B157EFE157BFF000016E50216C497
:10157E0053CEFB43CE8012348FEF14F5CF43CE10F3
:10158E00E5CE30E0FB53CEFED20DD3229002B9E071
:10159E00648160030216E7E5CFE5CFF0E09002D15B
:1015AE00B4220B7434F07BFF7A2179988009740988
:1015BE00F07BFF7A2179229002D41212E0E5CFE57A
:1015CE00CF9002BBE5CFF09002BAE5CFF053CEFB41
:1015DE0043CE809002D1E0FFFD9002BAE0FAA3E084
:1015EE00FBD39DEA9400400DEF541F7004D2088087
:1015FE0009C20880059002D1EBF09002D1E0FF60A5
:10160E0063E5CE5442705DEFD3942040089002BC47
:10161E007420F080089002D1E09002BCF09002D1CC
:10162E00E0FF9002BCE0FEC3EF9E9002D1F090026C
:10163E00BCE0601D9002D41212C0121040F5CF9083
:10164E0002BCE014F09002D5E475F0011210F480A3
:10165E00DD43CE10E5CE20E006E5CE544260F553D4
:10166E00CEFE8096E5CE54426002801FA208E4337F
:10167E00FFBF011143CE10E5CE20E006E5CE544269
:10168E0060F553CEFEE5CE544260FA53CEFDD32222
:10169E00E5CF900285E5CFF0801C53CEFB43CE8084
:1016AE00900285E0F5CF43CE10E5CE30E0FB8022F0
:1016BE00900339E5CFF053CEFB43CE10D32253CE59
:1016CE00FB43CE80900339E0F5CF43CE10E5CE300C
:0A16DE00E0FB53CEFED322C322C36B
:0116E80022DF
:102C2800EF24FD704FED700E9002D17404F07BFF1D
:102C38007A2179948034EDB4010E9002D1740CF0AD
:102C48007BFF7A2179328022EDB4020E9002D17492
:102C58003AF07BFF7A21793E8010EDB4031490029C
:102C6800D1741CF07BFF7A2179789002D41212E09B
:062C7800D322C322C32297
:103382009002B97403F075C7017D407FC3023245D4
:1020F4001201000200000020EB0314200001010281
:1021040003010A0600020000002001000902220067
:1021140001010080320904000001030102000921C9
:10212400100100012234000705810304000A0C0396
:10213400410054004D0045004C003A034100540056
:1021440038003900430035003100330031002000ED
:102154002D00200055005300420020004D00610076
:10216400730073002000530074006F00720061005C
:10217400670065001C0331002E0033002E0035007B
:102184002E0037002E0039002E0042002E0044009D
:102194000403090405010902A1010901A1000509BB
:1021A400190129031500250175019503810275059F
:1021B4009501810105010930093109381581257F0F
:0821C400750895038106C0C0F7
:1032D4007F029002D7E4F0A3DFFCC207E49002D29D
:0332E400F0C2092C
:0132E70022C4
:10236E00E4F5C79002D3E5CFF09002B8E5CFF0E0E8
:10237E001212E923E80023C80123D80323B2052350
:10238E009A0623A60823BD09000024199002D3E063
:10239E00B48003021D1F80669002D3E0B480030256
:1023AE0031CB805A9002D3E0700302325E804F90A0
:1023BE0002D3E07003022FCF80449002D3E0FF746B
:1023CE0002C39F400302000680349002D3E0FF74E4
:1023DE0002C39F4003022D7980249002D3E0FF7444
:1023EE0082C39F40047E0180027E00747FC39F5093
:1023FE00047F0180027F00EF5E6003022C7E90025C
:10240E00D3E0FF9002B8E0FD0215599002D3E0FF31
:10241E009002B8E0FD121559E433700643CE2053F6
:02242E00CEFBE3
:012430002289
:10325E00AFCF53CEFB43CE10E5CE30E0FB53CEFEC8
:08326E0053C67F8FC643C680E2
:013276002235
:102FCF00AFCFEFD39402500A53CEFB9002D2EFF063
:102FDF00800743CE2053CEFB2243CE10E5CE30E008
:0C2FEF00FB53CEFE9002D2E0FF123382B2
:012FFB0022B3
:101D1F00C208AECFAFCFEF24FE6011047022900245
:101D2F00D17412F07BFF7A2079F4800C9002D17479
:101D3F0022F07BFF7A2179109002D41212E08010EA
:101D4F00AD06122C28E433700743CE2053CEFB226E
:101D5F00E5CFE5CF9002BAE5CFF09002B9E5CFF02D
:101D6F0053CEFB43CE809002D1E0FFFD9002B9E04D
:101D7F00FAA3E0FBD39DEA9400400DEF541F7004CB
:101D8F00D2088009C20880059002D1EBF09002D1F1
:101D9F00E0FF6063E5CE5442705DEFD394204008BE
:101DAF009002BB7420F080089002D1E09002BBF04B
:101DBF009002D1E0FF9002BBE0FEC3EF9E9002D1F4
:101DCF00F09002BBE0601D9002D41212C0121040BE
:101DDF00F5CF9002BBE014F09002D5E475F001123C
:101DEF0010F480DD43CE10E5CE20E006E5CE544260
:101DFF0060F553CEFE8096E5CE54426002801FA25E
:101E0F0008E433FFBF011143CE10E5CE20E006E515
:101E1F00CE544260F553CEFEE5CE544260FA53CE17
:011E2F00FDB5
:011E3000228F
:1031CB0053CEFB43CE809002D2E0F5CF43CE10E539
:1031DB00CE30E0FB53CEFEE5CE544260FA53CEFD2B
:0131EB0022C1
:102C7E00E5CFE5CFAFCF9002D3E0247F600714609D
:102C8E000F2402702253CEFB43CE80E4F5CF801E7C
:102C9E0053CEFB43CE80EF547F24D7F582E434022B
:102CAE00F583E0F5CF800743CE2053CEFB22E4F52B
:102CBE00CF43CE10E5CE30E0FB53CEFEE5CE5442F0
:052CCE0060FA53CEFD89
:012CD30022DE
:102D79009002D3E0FFB401028038EF64027039AFEA
:102D8900CFE5CFEF702CE5CF547FFF700280238F02
:102D9900C7E5D430E71A43CE20E4F5C774D72FF539
:102DA90082E43402F5837401F053CEFB43CE102242
:082DB900800043CE2053CEFB45
:012DC10022EF
:100006009002D3E0FF7002804CEFB401028046EF0D
:1000160064027047AFCFE5CFEF703AE5CF547FFF6C
:10002600F5C7E5D430E72CEF601353CEDF7401A893
:1000360007088002C333D8FCF5D5E4F5D5E4F5C747
:1000460074D72FF582E43402F583E4F053CEFB43F4
:0B005600CE1022800043CE2053CEFBD2
:01006100227C
:10293C0041544D454C2020204154383943353133D6
:10294C0031204D2E532E2020302E303000800002AE
:10295C001F00000041544D454C2020204154383973
:10296C004335313331204D2E532E2020302E303034
:10297C00000000000000000000000000000000004B
:10298C00000000000000000000000000000000003B
:10299C00000000000000000000000000000000002B
:0C29AC000000000000000000000000001F
:1028B80090029AE0B42A05122431800A90029AE024
:1028C800B42808122661920EA20E2290029AE012F3
:1028D80012E928FF0028F90328FC1229051A2911F2
:1028E8001B29091E290225290C2F29205A000029F5
:1028F80025022A290220180230A9022BD0C20F80F3
:10290800190234821231368029E4900299F090023B
:10291800AAF0A3F0A3F0801AD20F021E31900299F8
:102928007401F09002AA7405F0A37420F0E4A3F0F7
:03293800C322D3E4
:01293B002279
:102A290090029EE0FF9002C07470F0E4A3F090025F
:102A3900AAE09002C2F0E4A3F0A3F0A3F0A3F0A3EC
:102A4900740AF0E4A3F0A3F0A3F0A3F09002ABE0C2
:102A59009002CCF09002ACE09002CDF0E4A3F0A398
:102A6900F0A3F0A3F0FEEEC39F501074C02EF582C0
:102A7900E43402F583E0F5CF0E80EB43CE10E5CECA
:0E2A890030E0FB53CEFEC3E51A9F12311FD37F
:012A9700221C
:1020180090029BE0540360030220DFA3E060030208
:1020280020DF90029EE0FBD3946040027B60900327
:10203800317429F0A37458F0E4FFEBD39F4048EFC4
:10204800B4080A9003317429F0A3743CF0EFB4107B
:102058000A9003317429F0A37444F0EFB4200A9075
:1020680003317429F0A37454F0900331E0FCA3E029
:10207800F5828C83E493F5CF900331E475F0011277
:1020880010F40FEFB424B3EBD39F4037EFB4402DD7
:1020980043CE10E5CE30E0FB53CEFEC3E51A9440A4
:1020A800FFE5199400FEE5189400FDE51794008FEC
:1020B8001A8E198D18F51774C02BFBE4FFE4F5CFC1
:1020C8000F80C443CE10E5CE30E0FB53CEFEC3E50F
:1020D8001A9B12311FD3229002997401F09002AA20
:0B20E8007405F0A37424F0E4A3F0C31F
:0120F30022CA
:1030A900900288E0FF120062EF24FE600C14600EAB
:1030B9002403700F123136800D12334C80081232FE
:0830C900E8800312335FD322FB
:102BD000900288E0FF7C037D251233ADEF24FE6078
:102BE0003814603A2403703B900325E0F5CFA3E04E
:102BF000F5CFA3E0F5CFA3E0F5CFE4F5CFF5CF75A2
:102C0000CF02F5CF43CE10E5CE30E0FB53CEFEC36E
:102C1000E51A940812311FD32212334C8008123265
:072C2000E8800312335FC3DB
:012C2700228A
:1026610090029CE09002F8F090029DE09002F9F057
:1026710090029EE09002FAF090029FE09002FBF03F
:102681009002A1E09002FCF09002A2E09002FDF025
:102691009002FCE0FAA3E0FB4A60679002F8121294
:1026A1006B9002E91212779002EDEAF0A3EBF09041
:1026B1000288E0FF122F11EF24FE603714603924E5
:1026C10003703A1231369002FCE0FEA3E0FFE4FC15
:1026D100FDFB7A02F9F8121117C3E51A9FFFE519FC
:1026E1009EFEE5189DFDE5179C8F1A8E198D18F534
:1026F10017D32212334CC3221232E8C32212335FA2
:06270100C322123136D3A1
:0127070022AF
:1024310090029CE09002FEF090029DE09002FFF07D
:1024410090029EE0900300F090029FE0900301F063
:102451009002A1E0900302F09002A2E0900303F049
:10246100900302E07002A3E070030224EF9002885F
:10247100E0FF123421E433FFBF01051232FCC32215
:102481009002FE12126B9002F1121277900302E099
:10249100FFA3E09002F5CFF0A3EFF0900288E0FFF8
:1024A100122F41EF24FE60371460392403703A1271
:1024B1003136900302E0FEA3E0FFE4FCFDFB7A026B
:1024C100F9F8121117C3E51A9FFFE5199EFEE518E9
:1024D1009DFDE5179C8F1A8E198D18F517D32212C1
:1024E100334CC3221232E8C32212335FC3221231AA
:0224F10036D3E0
:0124F30022C6
:101E3100300F059002A2800390029EE090033AF0D9
:101E410090029CE0543F14601B24C2603424236040
:101E510003021F14122DC212320B43CE10E5CE30F5
:101E6100E0FB8013122DC290033AE0FF1230F943D8
:101E7100CE10E5CE30E0FB53CEFEC3E51A941080C0
:101E810079A20F9210741B122DC8300F1A90033AC9
:101E9100E06408702B43CE10E5CE30E0FB53CEFE5C
:101EA100C3E51A9408805390033AE0B4041243CE78
:101EB10010E5CE30E0FB53CEFEC3E51A9404803A20
:101EC10090033AE0FF1230F990033AE0D3940C40CA
:101ED1001512320B43CE10E5CE30E0FB53CEFEC3DC
:101EE100E51A941C801443CE10E5CE30E0FB53CEAE
:101EF100FE90033AE0FBC3E51A9BFFE5199400FE4F
:101F0100E5189400FDE51794008F1A8E198D18F5C8
:101F11001780159002997401F09002AA7405F0A33C
:0C1F21007424F0E4A3F0C322123136D384
:011F2D002291
:0A2DC200A20F9210740F90033BF073
:102DCC00301003E4F5CF90033BE0F5CFE4F5CF9062
:102DDC000288E0FF123421500575CF808003E4F5A2
:102DEC00CF301005E4F5CFF5CF301003E4F5CFE488
:032DFC00F5CF22EE
:10320B0075CF1C75CF0AE4F5CF75CF05F5CFF5CF8C
:0E321B00F5CFF5CFF5CFF5CFF5CF75CF01226A
:1030F90075CF0175CF0A75CF8075CF03E4F5CFF58C
:10310900CFF5CFF5CFEFD3940C400A75CF80E4F516
:06311900CFF5CFF5CF2237
:05348200123136D322D7
:10311F00FFE5199400FEE5189400FDE51794008F64
:07312F001A8E198D18F51727
:0E313600E4900299F09002AAF0A3F0A3F02218
:10334C009002997401F09002AA04F0A3743AF0E48C
:03335C00A3F022B9
:1032E8009002997401F09002AA7406F0A37428F071
:0432F800E4A3F02239
:10335F009002997401F09002AA7404F0E4A3F0A310
:02336F00F0224A
:1032FC009002997401F09002AA7407F0A37427F05D
:04330C00E4A3F02224
:03348F007F012298
:033492007F002296
:09006200EF700302346A7F0122F1
:0D33AD00EF7007AE04AF050231677F01220B
:08342100EF700302349ED32278
:08342900EF70030234A0D3226E
:102F1100EF70279002E912126B9002EDE0FBA3E043
:102F2100900308CBF0A3EBF01233109002EFEFF017
:0F2F310070081234959002EFEFF09002EFE0FF7E
:012F4000226E
:102F4100EF70279002F112126B9002F5E0FBA3E003
:102F510090030ECBF0A3EBF01233249002F7EFF0C5
:0F2F610070081234989002F7EFF09002F7E0FF3B
:012F7000223E
:0433D700C10BC10A5B
:0C33C700200A081225B112006ED20A2262
:06346A001233C77F0022AF
:10316700900333EEF0A3EFF01233C7900108121269
:103177006B900333E0FAA3E0F5828A831212777F1C
:02318700002224
:02349E00C32247
:0234A000C32245
:103310001219A3900308E0FEA3E0FF1216E912348D
:043320009B7F00226D
:1033240012088B90030EE0FEA3E0FF12130F122B82
:043334006A7F00228A
:033495007F002293
:033498007F002290
:102F710001F40410392001F40810332001F4082071
:102F8100272001F410203F2001F40410392001F41E
:102F91000810332001F40820272001F410203F20DD
:0233DB00C1002F
:10006E00C2A530A2FD74FF90011CF0A3F0E4782726
:10007E00F6C202F50FF50A90010C74FFF0E4F510CC
:10008E0090010DE0FFE510C39F501174002510F58F
:10009E0082E43401F583E4F0051080E4E490026E0E
:1000AE00F0F50EF50DF50CF50BF51090010DE0FFCA
:1000BE00E510C39F40030201FE74122510F582E481
:1000CE003401F5837417F0E51025E025E0FEE51008
:1000DE0025E02475F582E43402F583EEF0A3E4F016
:1000EE009002717404F0A3E4F09009007450F09043
:1000FE000A007405F0E50EF0E50DF0300103E50C95
:10010E00F030A2FD900800E0F4601174122510F595
:10011E0082E43401F583E014F00201CA900800E095
:10012E0090026DF0E0FF600FF4602DEF54F8641054
:10013E006026E064E8602174122510F582E4340133
:10014E00F583E014F074122510F582E43401F58382
:10015E00E0C394045066C32290026DE0B4E834A369
:10016E00E0FFAE107401A806088002C333D8FC4F1E
:10017E0090026EF0AF0EAE0DAD0CAC0B78051212F8
:10018E0045E51025E0245CF582E43402F583EEF0BB
:10019E00A3EFF090026DE054F8FFBF101FAF0EAE4C
:1001AE000DAD0CAC0B7805121245E51025E024754B
:1001BE00F582E43402F583EEF0A3EFF0E50E242091
:1001CE00FFE4350DFEE4350CFDE4350B8F0E8E0D80
:1001DE008D0CF50B90027174FFF5F01210F4900275
:1001EE0071E07002A3E060030200F705100200B98F
:1001FE00E4F51090010DE0FFE510C39F40030203EC
:10020E001A74017E00A810088005C333CE33CED8F1
:10021E00F9FF90026EE0FDEF5D7003020315E5102D
:10022E0025E0245CF582E43402F583E0FEA3E0FFD2
:10023E00E4FCFD78051212588F0E8E0D8D0C8C0B72
:10024E0030A2FD9009007450F0900A007406F0E59B
:10025E000EF0E50DF0300103E50CF030A2FD740058
:10026E002510F582E43401F583E004F0E50E240454
:10027E00FFE4350DFEE4350CFDE4350B8F0E8E0DCF
:10028E008D0CF50B900800E064E860B47400251046
:10029E00F582E43401F583E024FEF0E50E24F8FF48
:1002AE00E50D34FFFEE50C34FFFDE50B34FF8F0E3C
:1002BE008E0D8D0CF50B9009007450F0E4900A0031
:1002CE00F0E50EF0E50DF0300103E50CF030A2FD87
:1002DE00900800E0F46030AF0EAE0DAD0CAC0B121A
:1002EE002E0790026EE0FFAE107401A80608800281
:1002FE00C333D8FCF45F90026EF074002510F582C3
:10030E00E43401F583E4F00510020201E4F51090E7
:10031E00010DE0FFE510C39F400302044174017E0E
:10032E0000A810088005C333CE33CED8F9FF900253
:10033E006EE0FDEF5D600302043CE51025E02475E0
:10034E00F582E43402F583E0FFA3E090026FCFF074
:10035E00A3EFF0E51075160025E025E0F515E4A3F2
:10036E00F0A3F0C21130A2FD90026FE0FEA3E0FFF9
:10037E00E4FCFD78051212588F0E8E0D8D0C8C0B31
:10038E009009007450F0900A007405F0E50EF0E547
:10039E000DF0300103E50CF030A2FD900800E09066
:1003AE00026CF0900800E090026DF090026CE0B4E8
:1003BE00FF09A3E0B4FF04D211802590026FE0B5CF
:1003CE001514A3E0B5160FE51624FFF0E51534035A
:1003DE0090026FF0800A90026F74FFF5F01210F425
:1003EE00900271E475F0011210F420110CC390020A
:1003FE0071E09404500302037690026FE0FEA3E0D6
:10040E00FFE4FCFD78051212588F0E8E0D8D0C8CAC
:10041E000B122E0790026FE0FEA3E0FFE51025E021
:10042E00245CF582E43402F583EEF0A3EFF00510C0
:10043E0002031DE4F51090010DE0FFE510C39F408F
:10044E000302088174017E00A810088005C333CE14
:10045E0033CED8F9FF90026EE0FDEF5D6003020827
:10046E007CC211F515F516F508750980E51025E025
:10047E002475F582E43402F583E0FEA3E07825A628
:10048E000608F6E51025E0245CF582E43402F583D7
:10049E00E0FEA3E0FFE4FCFD78051212588F0E8EED
:1004AE000D8D0C8C0B121C05AF10E4FCFDFE780FAD
:1004BE001212588F1E8E1D8D1C8C1BE51025E025EB
:1004CE00E090026FF0A3E4F030A2FD90027174048C
:1004DE00F0A3E4F09009007450F0900A007405F057
:1004EE00E51EF0E51DF0300103E51CF030A2FD9095
:1004FE000800E090026CF0E0F4600302063B900806
:10050E0000E0900273F0900800E0900274F0900208
:10051E0073E054F86410600302063BE0540FFEA330
:10052E00E0FFEEC313FEEF13FF900273EEF0A3EFA6
:10053E00F0C3900274E09509900273E095084003B1
:10054E0002063BC3A3E09516900273E09515500387
:10055E0002063BA3E025E02400F8E2B4FF0DE025FF
:10056E00E02401F8E2F4700302061EE51E241FFFCC
:10057E00E4351DFEE4351CFDE4351B8F1E8E1D8DEE
:10058E001CF51B30A2FD9009007450F0900A007407
:10059E0006F0E51EF0E51DF0300103E51CF030A27B
:1005AE00FD900800E054F86410703C900274E02551
:1005BE00E02400F8E2FFE4FCFDFE7808121258C0B9
:1005CE0004A905AA06AB07E025E02401F8E2FFE442
:1005DE00FCFDFED00012110A78051212588F1E8EE5
:1005EE001D8D1C8C1B801CC3E51E941FFFE51D94E6
:1005FE0000FEE51C9400FDE51B94008F1E8E1D8DE4
:10060E001CF51BAF1EAE1DAD1CAC1B122E0780566B
:10061E0090026FE0FCA3E0FDECFF900274E025E099
:10062E002400F8EFF2E025E02401F8EDF2E51E24B7
:10063E0020FFE4351DFEE4351CFDE4351B8F1E8EB8
:10064E001D8D1CF51B90026FE475F0011210F490D5
:10065E00027174FFF5F01210F4900271E07002A3B3
:10066E00E060030204E2900271E07002A3E06053C6
:10067E00C211E4F515F516F508750980E51025E0AB
:10068E002475F582E43402F583E0FEA3E07825A616
:10069E000608F6AF0EAE0DAD0CAC0B122E07E51024
:1006AE0025E0245CF582E43402F583E0FEA3E0FF4E
:1006BE00E4FCFD78051212588F0E8E0D8D0C8C0BEE
:1006CE000208727825E6FE08E6FFE4FCFD780512C6
:1006DE0012588F1E8E1D8D1C8C1BE4900271F0A380
:1006EE00F0900271E0FEA3E0FFD394FEEE94004082
:1006FE00030207D874002FF8E2F460030207CB3030
:10070E00A2FDE51E2420FFE4351DFEE4351CFDE4AC
:10071E00351B8F1E8E1D8D1CF51BE5102401FFE46D
:10072E0033FEE4FCFD780F121258AB1EAA1DA91C55
:10073E00A81BC31212344013AF10E4FCFDFE780F59
:10074E001212588F1E8E1D8D1C8C1B90090074501A
:10075E00F0900A007405F0E51EF0E51DF03001037F
:10076E00E51CF030A2FD900800E090026CF09008BD
:10077E0000E090026DF0E0F4708890026CE0F4708E
:10078E0081AF1EAE1DAD1CAC1B122E07AF1EAE1DD3
:10079E00AD1CAC1B78051212457825A60608A607D7
:1007AE0018E6FC08E6FDEC4480FF900271A3E0FE23
:1007BE002400F8EFF2AF0574012EF8EFF2900271FB
:1007CE00E475F0021210F40206EF30A2FD2011249F
:1007DE00E4900900F07480F0E4900A00F0E50EF069
:1007EE00E50DF0300103E50CF0121CB69009007413
:1007FE0010F080589009007401F07480F0E4900AB3
:10080E0000F0E50EF0E50DF0300103E50CF0121CE2
:10081E00B690080074FFF0F0F0F0F0F074E8F074A9
:10082E00FFF0F0F0F074E8F074FFF0F0F0F09009E3
:10083E00007410F0E50E2401FFE4350DFEE4350CD6
:10084E00FDE4350B8F0E8E0D8D0CF50BB2117480F1
:10085E002516F516E43515F51574802509F509E408
:10086E003508F508C3E515940450030204B30510CA
:04087E00020444D359
:010882002253
:1025B10075A03CC2A590090074FFF030A2FD9009FE
:1025C100007490F0E4900A00F0900800E0FFE0242D
:1025D1008B602314603924FD604F24067065E490FC
:1025E100011BF090010D04F090010812128300000C
:1025F1007CFFC201804F90011B7401F090010D041A
:10260100F09001081212830000F9FFC20180369098
:10261100011B7402F090010D7404F0900108121274
:10262100830001F3FFD201801C90011B7403F09021
:10263100010D7408F09001081212830003E7FFD224
:10264100018002C32290010812126BEF2401FFE402
:102651003EFEE43DFDE43CFC90010E121277D322D4
:0619A30090031012127700
:1019A900C2A5300205120C93C20290031012126BE9
:1019B9008F1E8E1D8D1C8C1BE4F515F516780512EE
:1019C90012457825A60608A60718E6FE08E6FF7C54
:1019D900037DE812109F8F107E007C037DE81210B2
:1019E9008DC37826E69FF618E69EF6E51025E024D5
:1019F9005CF582E43402F583E0FEA3E0FFE4FCFD3C
:101A09007805121258C004C005C006C0077825E63B
:101A1900FE08E6FFE4FCFD7808121245D003D00267
:101A2900D001D00012110A8F0E8E0D8D0C8C0B7403
:101A3900002510F582E43401F583E0FFE4FCFDFEA6
:101A49007802121258E50E2FFFE50D3EFEE50C3D1A
:101A5900FDE50B3C8F0E8E0D8D0CF50B30A2FD783C
:101A690025E6FE08E6FF30E70D9009007401F0EF66
:101A790025E0FFEE800DE4900900F07826E625E0E8
:101A8900FF18E633900A00EFF0900A00E50EF0E542
:101A99000DF0300103E50CF030A2FD900800E09054
:101AA9000314F0900800E0900315F0900314E0FE91
:101AB900A3E0FFE4FCFD7805121258A804A905AAC1
:101AC90006AB07E51E541FFFE4FEFDFC12110A8F49
:0A1AD900148E138D128C11D2A5D3C8
:011AE30022E0
:03349B00D2A52295
:10270800E51645157029C2A530A2FDE4900900F030
:10271800900A00F0E514F0E513F0300103E512F03B
:1027280030A2FD900800E090033CF0D2A58008900C
:102738000800E090033CF00516E51670020515E563
:102748001564027055900800E0E0E0E0E0E0E0E0A9
:10275800E0E0E0E0E0E0E0E0E51E2401FFE4351D14
:10276800FEE4351CFDE4351B8F1E8E1D8D1CF51BEC
:10277800E4F515F516E51E541F7007AC1B1219A3D6
:102788008018E5142401FFE43513FEE43512FDE456
:0F27980035118F148E138D12F51190033CE0FF55
:0127A700220F
:0816E900900335EEF0A3EFF0D1
:1016F100D212C2A530A2FDE4900900F0900A00F0D8
:10170100E514F0E513F0300103E512F030A2FD7F9E
:1017110008900800E0F5CFE0F5CFE0F5CFE0F5CF98
:10172100E0F5CFE0F5CFE0F5CFE0F5CFE0F5CFE0A4
:10173100F5CFE0F5CFE0F5CFE0F5CFE0F5CFE0F57F
:10174100CFE0F5CFE0F5CFE0F5CFE0F5CFE0F5CF95
:10175100E0F5CFE0F5CFE0F5CFE0F5CFE0F5CFE074
:10176100F5CFE0F5CFE0F5CFE0F5CFE0F5CFE0F54F
:10177100CFE0F5CFE0F5CFE0F5CFE0F5CFE0F5CF65
:10178100E0F5CFE0F5CFE0F5CFE0F5CFE0F5CFE044
:10179100F5CFE0F5CFE0F5CFE0F5CFE0F5CFE0F51F
:1017A100CFE0F5CFE0F5CFE0F5CFE0F5CFE0F5CF35
:1017B100E0F5CFE0F5CFE0F5CFE0F5CFE0F5CFE014
:1017C100F5CFE0F5CFE0F5CFE0F5CFE0F5CFE0F5EF
:1017D100CFE0F5CF301204C2128008E5CE30E0FB35
:1017E10053CEFE43CE101FEF6003021712E51E24F5
:1017F10001FFE4351DFEE4351CFDE4351B8F1E8E13
:101801001D8D1CF51BD2A5E51E541F7007AC1B12C4
:1018110019A38018E5142401FFE43513FEE4351201
:10182100FDE435118F148E138D12F511900335746B
:10183100FFF5F01210F4900335E07002A3E06003AD
:0C1841000216F3E5CE30E0FB53CEFED3E0
:01184D002278
:08088300AF1EAE1DAD1CAC1B45
:10088B00C2138F1E8E1D8D1C8C1BE4F515F516786F
:10089B00051212457825A60608A607E4F510D378AD
:1008AB0026E694E718E69403400E08741826F6180B
:1008BB0074FC36F6051080E6C2A590010CE0FF65CE
:1008CB00106030D21330021A90033DEFF090010C00
:1008DB00E510F08F10120C93C20290010CE0F51092
:1008EB00800690010CE510F074FF90011CF0A3F052
:1008FB00E4F50A90011CE0FEA3E0FF7825E6FC0876
:10090B00E6FDD3EF9DEE9C5021EF2480FFE43EFEED
:10091B00C3ED9FEC9E5013122EDF90011CA3E0FF42
:10092B007826E6C39FF50F020B62E51025E0245CE9
:10093B00F582E43402F583E0F508A3E0F509300213
:10094B0003120C93AE08AF09E4FCFD7805121258A4
:10095B00C004C005C006C0077825E6FE08E6FFE424
:10096B00FCFD7808121245D003D002D001D0001242
:10097B00110A8F0E8E0D8D0C8C0B74002510F582C9
:10098B00E43401F583E0FFE4FCFDFE78021212581B
:10099B00E50E2FFFE50D3EFEE50C3DFDE50B3C8F17
:1009AB000E8E0D8D0CF50B122EDF7825E6FE08E66C
:1009BB00FF90033DF074122510F582E43401F583AA
:1009CB00E090011AF090011CEEF0A3EFF018E6FE98
:1009DB0008E6FF2485FDE43EFCD3ED94E7EC94039D
:1009EB00400A74E89FFF74039EFE80047E007F859F
:1009FB0090011EEEF0A3EFF030A2FD7826E630E773
:100A0B00089009007401F08007E4900900F0782643
:100A1B00E625E0FF900A00EFF0900A00E50EF0E506
:100A2B000DF0300103E50CF030A2FDE4FBEBFFD33E
:100A3B0090011FE09F90011EE09400405E90080023
:100A4B00E0FF75F002EB9001221212B4EFF0900868
:100A5B0000E0FF75F002EB9001231212B4EFF0905F
:100A6B00033DE004F0E07030E50E2401FFE4350DAA
:100A7B00FEE4350CFDE4350B8F0E8E0D8D0CF50B56
:100A8B00E4900900F0900A00F0E50EF0E50DF0306F
:100A9B000103E50CF030A2FD0B8092201303020B37
:100AAB005CAE08AF09E4FCFD7805121258EF240385
:100ABB00FFE43EFEE43DFDE43C8F0E8E0D8D0CF508
:100ACB000B74002510F582E43401F583E0FFE4FCA0
:100ADB00FDFE7802121258E50E2FFFE50D3EFEE5E6
:100AEB000C3DFDE50B3C8F0E8E0D8D0CF50B90091F
:100AFB00007401F0900A0074D0F0E50EF0E50DF0F3
:100B0B00300103E50CF030A2FDE490033DF09001C1
:100B1B001AE0FF90033DE0FDC39F5035900800E0C5
:100B2B00FEED25E0242CF582E43402F583EEF0A3F0
:100B3B00E4F0900800E0FFED25E0242CF582E4348E
:100B4B0002F583E48FF01210F490033DE004F08083
:100B5B00BDE4F50F7827F675F002E50F9001221230
:100B6B0012B4E020E7047F0180027F00EF24FF92A4
:100B7B000330036175F002E50F9001221212B4E00D
:100B8B00FEA3E0FF900120EEF0A3EFF0E50A25E0D5
:100B9B00242CF582E43402F583E0FCA3E0FD75F030
:100BAB0002E50F9001221212B4ECF0A3EDF0EE442B
:100BBB0080FEAD0A050AED25E0242CF582E4340213
:100BCB00F583EEF0A3EFF090011AE0FFE50AC39F67
:100BDB004003E4F50A75F002E50F9001221212B4FE
:100BEB00E0547FF0E50FD37827964002A60F75F0FF
:100BFB0002E50F9001221212B4E0FEA3E0FFE4FC29
:100C0B00FD78051212588F148E138D128C11300330
:100C1B00051224F48003122EABC204D202AE08AF2D
:100C2B0009E4FCFD78051212588F0E8E0D8D0C8C7D
:100C3B000B74002510F582E43401F583E0FFE4FC2E
:100C4B00FDFE7802121258E50E2FFFE50D3EFEE574
:100C5B000C3DFDE50B3C8F0E8E0D8D0CF50B30A274
:100C6B00FD9009007450F07480F0E4900A00F0E5F8
:100C7B000EF0E50DF0300103E50CF0E4900800F008
:070C8B009009007410F0D382
:010C9200223F
:102B6A00C2A5E5164515603BE5156402600F05161A
:102B7A00E51670020515E4900800F080EB1230D1DA
:102B8A009009007410F0E4F515E51E2401FFE43500
:102B9A001DFEE4351CFDE4351B8F1E8E1D8D1CF5B4
:102BAA001B051430031CE51E541F60031221CC9030
:102BBA000120E0FEA3E0FFE4FCFD780512125812A2
:062BCA002E07D2A5D32264
:10184E0090033EEFF0200403021938C20430031354
:10185E00900120E0FEA3E0FFE4FCFD780512125893
:10186E00122E07050FD390011FE0950F90011EE079
:10187E009400500612088302193875F002E50F9095
:10188E0001221212B4E0FEA3E0FFEE20E756900113
:10189E0020F0A3EFF0E50A25E0242CF582E43402D3
:1018AE00F583E0547FFCA3E0FD75F002E50F900197
:1018BE00221212B4ECF0A3EDF0EE4480FEAD0A0558
:1018CE000AED25E0242CF582E43402F583EEF0A334
:1018DE00EFF0D20390011AE0FFE50AC39F4016E431
:1018EE00F50A801175F002E50F9001221212B4E094
:1018FE00547FF0C203E50FD37827964002A60F75EA
:10190E00F002E50F9001221212B4E0FEA3E0FFE414
:10191E00FCFD78051212588F148E138D128C1178CF
:10192E002606E618700106122EDFC2A5E51645152D
:10193E00701C30A2FDE4900900F07480F0E4900A6F
:10194E0000F0E514F0E513F0300103E512F090031A
:10195E003EE0900800F00516E51670020515E51537
:10196E00B402301230D19009007410F0E4F515E590
:10197E001E2401FFE4351DFEE4351CFDE4351B8FEE
:10198E001E8E1D8D1CF51BE51E541F7004D2048087
:05199E00020514D32234
:08130F00900337EEF0A3EFF0AC
:101317002004030213FCC204300313900120E0FEF3
:10132700A3E0FFE4FCFD7805121258122E07050F03
:10133700D390011FE0950F90011EE0940050061214
:1013470008830213FC75F002E50F9001221212B414
:10135700E0FEA3E0FFEE20E756900120F0A3EFF0B8
:10136700E50A25E0242CF582E43402F583E0547F76
:10137700FCA3E0FD75F002E50F9001221212B4EC18
:10138700F0A3EDF0EE4480FEAD0A050AED25E0245A
:101397002CF582E43402F583EEF0A3EFF0D203904C
:1013A700011AE0FFE50AC39F4016E4F50A801175AC
:1013B700F002E50F9001221212B4E0547FF0C2034D
:1013C700E50FD37827964002A60F75F002E50F9038
:1013D70001221212B4E0FEA3E0FFE4FCFD7805123F
:1013E70012588F148E138D128C11782606E61870FA
:1013F7000106122EDFC2A530A2FDE4900900F074A9
:1014070080F0E4900A00F0E514F0E513F0300103F2
:10141700E512F07F08E5CE544260FA900800E5CF68
:10142700F0E5CFF0E5CFF0E5CFF0E5CFF0E5CFF091
:10143700E5CFF0E5CFF0E5CFF0E5CFF0E5CFF0E58C
:10144700CFF0E5CFF0E5CFF0E5CFF0E5CFF0E5CF92
:10145700F0E5CFF0E5CFF0E5CFF0E5CFF0E5CFF061
:10146700E5CFF0E5CFF0E5CFF0E5CFF0E5CFF0E55C
:10147700CFF0E5CFF0E5CFF0E5CFF0E5CFF0E5CF62
:10148700F0E5CFF0E5CFF0E5CFF0E5CFF0E5CFF031
:10149700E5CFF0E5CFF0E5CFF0E5CFF0E5CFF0E52C
:1014A700CFF0E5CFF0E5CFF0E5CFF0E5CFF0E5CF32
:1014B700F0E5CFF0E5CFF0E5CFF0E5CFF0E5CFF001
:1014C700E5CFF0E5CFF0E5CFF0E5CFF0E5CFF0E5FC
:1014D700CFF0E5CFF0E5CFF0E5CFF0E5CFF030097D
:1014E7000553CEBF800353CEFDB2091FEF60030241
:1014F700141C90080074FFF0F0F0F0F0F07828E684
:10150700FFF008E6FEF074FFF0F0F0EFF0EEF09079
:1015170009007410F0E51E2401FFE4351DFEE435D3
:101527001CFDE4351B8F1E8E1D8D1CF51BE51E54FF
:101537001F7004D2048002051490033774FFF5F07E
:101547001210F4900337E07002A3E0600302131750
:01155700D3C0
:011558002270
:1029B800121AE4A20BE4337035A20033FFBF011FE3
:1029C80090010812126BC3EF9400FFEE9400FEED25
:1029D8009400FDEC9400FC900108121277C200905C
:1029E800011BE075F006A42471F9742F802DA20054
:1029F800E433701AD20090010812126BE42FFFE43E
:102A08003EFEE43DFDE43CFC900108121277900183
:102A18001BE075F006A42489F9742F35F0FA7BFFC2
:012A2800228B
:1033380030A2FD9009007470F0900800E020E002CF
:04334800D322C322A7
:102EDF007826E625E0FF18E633FEE42F7829F6EE94
:102EEF00341018F608E690033FF0A2D0921418E6BB
:102EFF00F030D002B214301408782906E6187001A9
:012F0F0006BB
:012F1000229E
:1030D10090080074FFF0F0F0F0F0F07828E6FC08BA
:1030E100E6FDECFFF0AE05EEF074FFF0F0F0EFF06E
:0830F100EEF074FFF0F0F02294
:102EAB00E51E541FFBEB602B30A2FD900900745004
:102EBB00F07480F0E4900A00F0E514F0E513F030C4
:102ECB000103E512F01230D19009007410F00514D3
:032EDB001B80D287
:012EDE0022D1
:1024F400900120E0FEA3E0FFE4FCFD7805121258F1
:102504008F0E8E0D8D0C8C0BE51E541F900340F026
:10251400900340E070030225B030A2FDE49009006E
:10252400F0900A00F0E50EF0E50DF0300103E50C43
:10253400F030A2FD121C4DE4900900F07480F0E428
:10254400900A00F0E514F0E513F0300103E512F011
:10255400121CB69009007410F030A2FD90090074AA
:1025640001F0E4900A00F0E50EF0E50DF03001030F
:10257400E50CF030A2FD121C4D9009007401F074BA
:1025840080F0E4900A00F0E514F0E513F030010364
:10259400E512F0121CB61230D19009007410F00547
:0C25A40014050E900340E014F002251412
:0125B0002208
:1021CC00900120E0FEA3E0FFE4FCFD78051212581C
:1021DC00A804A905AA06AB07E51E541FFFE4FCFDE5
:1021EC00FE12110A8F0E8E0D8D0C8C0BE51E541FDA
:1021FC00900341F0900341E0C39420400302229FDE
:10220C0030A2FDE4900900F0900A00F0E50EF0E534
:10221C000DF0300103E50CF030A2FD121C4DE490E2
:10222C000900F07480F0E4900A00F0E514F0E51376
:10223C00F0300103E512F0121CB69009007410F096
:10224C0030A2FD9009007401F0E4900A00F0E50E54
:10225C00F0E50DF0300103E50CF030A2FD121C4D41
:10226C009009007401F07480F0E4900A00F0E51419
:10227C00F0E513F0300103E512F0121CB61230D168
:10228C009009007410F00514050E900341E004F061
:03229C000222001B
:01229F00221C
:100C930074002510F582E43401F583E0FB640760FA
:100CA30003020D35AE08AF09FCFD7805121258EFAB
:100CB300241CFFE43EFEE43DFDE43CFC9002E41210
:100CC3001277E50A25E0242CF582E43402F583E06B
:100CD300547FF508A3E0F509E51025E0245CF582CF
:100CE300E43402F583E04480FEA3E0FFAD0A050A85
:100CF300ED25E0242CF582E43402F583EEF0A3EF36
:100D0300F090011AE0FFE50AC39F4003E4F50AAE41
:100D130008AF09E4FCFD78051212588F0E8E0D8D75
:100D23000C8C0B74002510F582E43401F583E4F098
:100D33008058AF03E4FCFDFE7802121258C004C0D1
:100D430005C006C007AE08AF09E4FCFD7805121222
:100D530058D003D002D001D00012110A9002E4123D
:100D6300127774002510F582E43401F583E004F072
:100D73009002E412126BEF2404FFE43EFEE43DFD17
:100D8300E43C8F0E8E0D8D0CF50BE49002DEF0A388
:100D9300F0A3F0A3F090011CE0FFA3E09002E2CFE8
:100DA300F0A3EFF030A2FDE4900900F0900A00F008
:100DB3009002E7E0900A00F09002E6E0900A00F06B
:100DC3003001089002E5E0900A00F030A2FD121C09
:100DD3004D9002DFE0D378279650689002E2E0FE60
:100DE300A3E0FF9002E0E0FCA3E0FD9FEC9E5053E4
:100DF300ED2480FDE43CFCC3EF9DEE9C5045900246
:100E0300DFE0FF75F0029001221212B4E0FE9002BF
:100E1300E2A3E0547FFD25E02400F8EEF275F00232
:100E2300EF9001231212B4E0FFED25E02401F8EF67
:100E3300F29002DFE004F09002E2E475F001121098
:100E4300F4808EE4900900F07480F0E4900A00F0DE
:100E5300E50EF0E50DF0300103E50CF0121CB69041
:100E630009007410F09002E0E475F0801210F43081
:100E7300A2FD9009007401F0E4900A00F09002E7EB
:100E8300E0900A00F09002E6E0900A00F0300108DA
:100E93009002E5E0900A00F030A2FD121C4D900292
:100EA300DFE0D378279650689002E2E0FEA3E0FFEC
:100EB3009002E0E0FCA3E0FD9FEC9E5053ED248004
:100EC300FDE43CFCC3EF9DEE9C50459002DFE0FF48
:100ED30075F0029001221212B4E0FE9002E2A3E048
:100EE300547FFD25E02400F8EEF275F002EF900147
:100EF300231212B4E0FFED25E02401F8EFF2900293
:100F0300DFE004F09002E2E475F0011210F4808E49
:100F1300C39002E1E094809002E0E09403404D909E
:100F230002DF74D0F0E49002DEF09002DEE0FD25F3
:100F3300E0242CF582E43402F583E0FF9002DFE045
:100F4300FE2400F8EFF2ED25E0242CF582E43402D0
:100F5300F583A3E0FF74012EF8EFF29002DFE024A3
:100F630002F09002DEE004F0E0B418BE90090074D1
:100F730001F07480F0E4900A00F0E50EF0E50DF066
:100F8300300103E50CF0121CB690080074FFF0F07A
:100F9300F0F0F0F074E8F074FFF0F0F0F074E8F0C3
:100FA30074FFF0F0F0F09009007410F09002E0E4A8
:100FB30075F0801210F49002E7E004F0050EC39080
:100FC30002E0E094045003020DA7E47827F67400CE
:100FD3002510F582E43401F583E07060E51025E027
:100FE300245CF582E43402F583E0FEA3E0FFE4FC35
:100FF300FD78051212589002E4121277E51025E0ED
:10100300245CF582E43402F583E508F0A3E509F0F6
:1010130030A2FDE4900900F07460F09002E7E090E4
:101023000A00F09002E6E0900A00F0300108900216
:0C103300E5E0900A00F090090074D0F095
:01103F00228E
:1030290030A2FD9009007450F07480F0900A007489
:1030390003F0E50EF0E50DF0300103E50CF0E49046
:0C3049000800F0F0F09009007410F02274
:082DFF00AF0EAE0DAD0CAC0BE4
:102E070090032912127730A2FDE4900900F0746054
:102E1700F090032CE0900A00F090032BE0900A005A
:102E2700F030010890032AE0900A00F0900900743E
:042E3700D0F0D322E2
:101AE400C2A590010E12126B7805121245E47BE830
:101AF4007A03F9F81211A2AF0390032FEAF0A3EFCF
:101B0400F0E4F50EF50DF50CF50BF51090010DE074
:101B1400FFE510C39F4003021C017B007A0430A23E
:101B2400FD9009007450F0900A007405F0E50EF081
:101B3400E50DF0300103E50CF030A2FDD21590085C
:101B440000E0F46004C2158010900800E090032DBA
:101B5400F0900800E090032EF090032DE064E8601C
:101B640002C21530156E122DFF1233384002806107
:101B74009009007450F07480F0E4900A00F0E50ECF
:101B8400F0E50DF0300103E50CF07F10E49008005F
:101B9400F0DFF99009007410F012333840028031FC
:101BA4009009007450F0E4900A00F0E50EF0E50DA1
:101BB400F0300103E50CF030A2FD7F10900800E046
:101BC4007002DFF8EF60028008122DFF12333840F4
:101BD40003123029E50E2420FFE4350DFEE4350C14
:101BE400FDE4350B8F0E8E0D8D0CF50BEB1B700188
:101BF4001AEB4A6003021B220510021B1012006E2E
:011C040022BD
:101C0500780074FFF208F208F208F208F208F20808
:101C1500F208F208F208F208F208F208F208F208EF
:101C2500F208F208F208F208F208F208F208F208DF
:101C3500F208F208F208F208F208F208F208F208CF
:101C4500F208F208E870BB227800900800E0F2087C
:101C5500E0F208E0F208E0F208E0F208E0F208E05D
:101C6500F208E0F208E0F208E0F208E0F208E0F23B
:101C750008E0F208E0F208E0F208E0F208E0F20815
:101C8500E0F208E0F208E0F208E0F208E0F208E02D
:0B1C9500F208E0F208E0F208E0F208BC
:101CA000E0F208E0F208E0F208E0F208E0F208E012
:101CB000F208E8709D227800900800E2F008E2F057
:101CC00008E2F008E2F008E2F008E2F008E2F008CA
:101CD000E2F008E2F008E2F008E2F008E2F008E2E0
:101CE000F008E2F008E2F008E2F008E2F008E2F0C2
:101CF00008E2F008E2F008E2F008E2F008E2F0089A
:101D0000E2F008E2F008E2F008E2F008E2F008E2AF
:0F1D1000F008E2F008E2F008E2F008E8709D2227
:10327700EF64016004EFB4030343B204EF64026038
:0932870004EFB4030343B3042275
:07344800AD077F25022FFCF8
:063470007F0512308022EE
:08343100AD077F27122FFC22DA
:0A33E9009002BDEDF07FA0022D2A36
:063476007F0712308022E6
:08343900EF2411FF1230802284
:07344F00EF2431FF022FFC06
:0A33F300123476EF540EC313FF22CC
:062E73009003201212E0A2
:102E79001233F3900324EFF0123439900323EFF067
:102E89009003201212C09002B2EFF07F61122CD48D
:102E9900900324E0FE900323E07C002400FFEC3E35
:012EA900FE2A
:012EAA002205
:07345600E4FD7FE1022FFC01
:07345D00E4FD7FE2022FFCF9
:06347C007F1712308022D0
:0B33DE00900344E0B401031233FD2211
:053080009002B5EFF025
:10308500C2A1E4FF1234109002B5E0FF1233DEE472
:10309500FF1233DE9002B6EFF07F0112341090027A
:0330A500B6E0FF93
:0130A8002205
:082FFC009002B5EFF0A3EDF027
:10300400E4FF1234109002B5E0FF1233DE9002B7F1
:10301400EFF09002B6E0FF1233DE7F01123410901D
:0430240002B7E0FF10
:013028002285
:092D2A009002B9EFF0A31212E0CF
:102D3300E4FF1234109002B9E0FF1233DE9002BEBA
:102D4300EFF0E4A3F09002BDE0FF9002BFE0C39F69
:102D530050199002BAE475F0011212C9121040FF23
:102D63001233DE9002BFE004F080DA7F01123410E8
:052D73009002BEE0FF2C
:012D78002238
:092CD4009002AEEFF0A31212E031
:102CDD00E4FF1234109002AEE0FF1233DE9002B327
:102CED00EFF0E4A3F09002B2E0FF9002B4E0C39FD6
:102CFD005020E4FF1233DE9002AF1212C09002B4E6
:102D0D00E0F582758300EF12106B9002B4E004F0D1
:0C2D1D0080D37F011234109002B3E0FF5D
:012D29002287
:0E3392007F0112329012348712340702305538
:1032BF00900342EFF07B017A0379427D011233E9EB
:0532CF007F70023431A4
:1031440090028AE0B440F97B017A0379439002B299
:103154007401F07F61122CD47F70123431900343D8
:02316400E0FF8A
:013166002246
:03000300022B03CA
:102B0300C0E0C0F0C083C082C0D075D000C000C098
:0D2B130001C002C003C004C005C006C00719
:102B2000123476EF547024F0601824F0600C24E026
:102B3000701890028A7440F0801590028A7420F018
:0F2B4000800D90028A7410F080057F701234317E
:102B4F00D007D006D005D004D003D002D001D000DA
:0B2B5F00D0D0D082D083D0F0D0E03284
:1032A800900345740AF07B017A0379459002BD7456
:0732B80001F07F20022D2A26
:103055009002B8740BF07B017A0279B89002BD74C6
:1030650001F07F20122D2A9002B87401F0FB7A023C
:0B30750079B89002BDF07F31022D2AD7
:05348700C2A2D2A22246
:09340700D2AF43A8014388012261
:0A33FD008FC5E5C430E7FBAFC52221
:10329000900344EFF043C32053C3E343C31053C32D
:0832A0007C43C30143C340223B
:09341000EF6003D2A122C2A12247
:0D33BA00EF146006047005C2A222D2A22208
:030000000227A82C
:0C27A800787FE4F6D8FD7581290227EF48
:10104000BB010689828A83E0225002E722BBFE02AE
:09105000E32289828A83E49322E1
:10105900BB010689828A83F0225002F722BBFE0176
:02106900F32270
:10106B00F8BB010DE58229F582E5833AF583E8F0BB
:10107B00225006E92582C8F622BBFE05E92582C867
:02108B00F2224F
:10108D00EF8DF0A4A8F0CF8CF0A428CE8DF0A42E77
:02109D00FE2231
:10109F00BC000BBE0029EF8DF084FFADF022E4CC35
:1010AF00F875F008EF2FFFEE33FEEC33FCEE9DECFE
:1010BF00984005FCEE9DFE0FD5F0E9E4CEFD22ED44
:1010CF00F8F5F0EE8420D21CFEADF075F008EF2F8E
:1010DF00FFED33FD4007985006D5F0F222C398FD7F
:0510EF000FD5F0EA221C
:1010F400C5F0F8A3E028F0C5F0F8E5821582700287
:061104001583E038F02223
:0D110A00EF2BFFEE3AFEED39FDEC38FC2234
:10111700E88FF0A4CC8BF0A42CFCE98EF0A42CFC77
:101127008AF0EDA42CFCEA8EF0A4CDA8F08BF0A4F5
:101137002DCC3825F0FDE98FF0A42CCD35F0FCEB54
:101147008EF0A4FEA9F0EB8FF0A4CFC5F02ECD3919
:0F115700FEE43CFCEAA42DCE35F0FDE43CFC2286
:1011660075F008758200EF2FFFEE33FECD33CDCC40
:1011760033CCC58233C5829BED9AEC99E5829840C3
:101186000CF582EE9BFEED9AFDEC99FC0FD5F0D6A0
:10119600E4CEFBE4CDFAE4CCF9A88222B800C1B9CA
:1011A6000059BA002DEC8BF084CFCECDFCE5F0CB08
:1011B600F97818EF2FFFEE33FEED33FDEC33FCEB41
:1011C60033FB10D703994004EB99FB0FD8E5E4F9FC
:1011D600FA227818EF2FFFEE33FEED33FDEC33FCE9
:1011E600C933C910D7059BE99A4007EC9BFCE99ADD
:1011F600F90FD8E0E4C9FAE4CCFB2275F010EF2F22
:10120600FFEE33FEED33FDCC33CCC833C810D70721
:101216009BEC9AE899400AED9BFDEC9AFCE899F85C
:0E1226000FD5F0DAE4CDFBE4CCFAE4C8F922EF
:10123400EB9FF5F0EA9E42F0E99D42F0E89C45F010
:011244002287
:10124500E8600FECC313FCED13FDEE13FEEF13FF87
:03125500D8F122AB
:10125800E8600FEFC333FFEE33FEED33FDEC33FCF4
:03126800D8F12298
:0C126B00E0FCA3E0FDA3E0FEA3E0FF22F6
:0C127700ECF0A3EDF0A3EEF0A3EFF022EA
:10128300A8828583F0D083D08212129A12129A1206
:10129300129A12129AE473E493A3C583C5F0C5832B
:1012A300C8C582C8F0A3C583C5F0C583C8C582C8B5
:0112B3002218
:0C12B400A42582F582E5F03583F5832245
:0912C000E0FBA3E0FAA3E0F9222F
:1012C900F8E0FBA3A3E0F925F0F0E58215827002AE
:0712D9001583E0FA38F02252
:0912E000EBF0A3EAF0A3E9F0220F
:1012E900D083D082F8E4937012740193700DA3A394
:1012F90093F8740193F5828883E4737402936860A8
:06130900EFA3A3A380DFA7
:1027B400023371E493A3F8E493A34003F68001F297
:1027C40008DFF48029E493A3F85407240CC8C33326
:1027D400C4540F4420C8834004F456800146F6DFF5
:1027E400E4800B01020408102040809033D3E47E7F
:1027F400019360BCA3FF543F30E509541FFEE493EA
:10280400A360010ECF54C025E060A840B8E493A3B0
:10281400FAE493A3F8E493A3C8C582C8CAC583CADB
:10282400F0A3C8C582C8CAC583CADFE9DEE780BE93
:0133DD0000EF
:00000001FF
